:100000000C9435010C9466010C9466010C94660105
:100010000C9466010C9466010C9466010C946601C4
:100020000C9466010C9466010C9466010C946601B4
:100030000C9466010C9466010C9466010C946601A4
:100040000C9466010C9466010C9466010C94660194
:100050000C9466010C9466010C9466010C940E03DA
:100060000C9466010C9482030C9458030C94660162
:100070000C9466010C9466010C9466010C94660164
:100080000C9466010C9466010C9466010C94660154
:100090000C9466010C9466010C9466010C94660144
:1000A0000C9466010C9466010C9466010C94660134
:1000B0000C9466010C9466010C9466010C94660124
:1000C0000C9466010C9466010C9466010C94660114
:1000D0000C9466010C9466010C9466010C94660104
:1000E0000C9466010C94CE050C94C3050C94E205A7
:1000F0000C94FA050C94DE050C944B020C949501BB
:100100000C94BF050C94E6050C9416060C94A401FF
:100110000C94F0050C94FE010C94C6010C94B005EF
:100120000C94D4050C94C7050C94D8050C94F405D4
:100130000C9468010C94EC050C94AB050C94B8017C
:100140000C94FE050C94CB0500002200250028002D
:100150002B002E00310034000201000005010801CF
:100160000B0100002100240027002A002D00300090
:10017000330001010000040107010A010000200012
:100180002300260029002C002F003200000100006F
:10019000030106010901050505050705080808080A
:1001A000020202020A0A080804040404010101010F
:1001B000010101010303030303030303040707070A
:1001C0000C0C0C0C0C0C0C0C0202020206060606AF
:1001D000060606060B0B0B0B0B0B0B0B010210207C
:1001E000200808102040102040800201020108046D
:1001F0000201010204081020408080402010080401
:100200000201800402018040201008040201080459
:10021000020101020408102040800102040810209D
:10022000408000000A0B02090C0D0E0807030401B0
:1002300000000000000000000000000000000000BE
:10024000000000000000000000000000000012118B
:10025000100000000000000000000000000000008E
:100260000000000000000000160611241FBECFEFA2
:10027000D1E2DEBFCDBF00E00CBF12E0A0E0B2E0F3
:10028000E4E2F0E100E00BBF02C007900D92A8315C
:10029000B107D9F722E0A8E1B2E001C01D92AA3E61
:1002A000B207E1F711E0C5E3D1E000E006C0219715
:1002B0000109802FFE010E940808C433D10780E0A5
:1002C0000807A9F70E94B8030C9410080C940000CA
:1002D000AF92BF92CF92DF92EF92FF920F931F9354
:1002E000CF93DF936C017B018B01040F151FEB0192
:1002F0005E01AE18BF08C017D10759F06991D60149
:10030000ED91FC910190F081E02DC6011995892BAA
:1003100079F7C501DF91CF911F910F91FF90EF9079
:10032000DF90CF90BF90AF900895FC01538D448D26
:10033000252F30E0842F90E0821B930B541710F090
:10034000CF96089501970895FC01918D828D98179D
:1003500061F0A28DAE0FBF2FB11D5D968C91928D75
:100360009F5F9F73928F90E008958FEF9FEF0895A6
:10037000FC01918D828D981731F0828DE80FF11D6F
:10038000858D90E008958FEF9FEF0895FC01918D8A
:10039000228D892F90E0805C9F4F821B91098F7383
:1003A000992708958DE492E00E94C60121E0892BEF
:1003B00009F420E0822F0895FC01A48DA80FB92F25
:1003C000B11DA35ABF4F2C91848D90E001968F737D
:1003D0009927848FA689B7892C93A089B1898C919C
:1003E000837080648C93938D848D981306C00288EB
:1003F000F389E02D80818F7D80830895EF92FF92B5
:100400000F931F93CF93DF93EC0181E0888F9B8D37
:100410008C8D98131AC0E889F989808185FF15C0F1
:100420009FB7F894EE89FF896083E889F989808114
:100430008370806480839FBF81E090E0DF91CF91E3
:100440001F910F91FF90EF900895F62E0B8D10E005
:100450000F5F1F4F0F731127E02E8C8D8E110CC074
:100460000FB607FCFACFE889F989808185FFF5CFBF
:10047000CE010E94DC01F1CFEB8DEC0FFD2FF11DC1
:10048000E35AFF4FF0829FB7F8940B8FEA89FB89FC
:1004900080818062CFCFCF93DF93EC01888D88235A
:1004A000B9F0AA89BB89E889F9898C9185FD03C0D7
:1004B000808186FD0DC00FB607FCF7CF8C9185FFBC
:1004C000F2CF808185FFEDCFCE010E94DC01E9CF24
:1004D000DF91CF91089580E090E0892B29F00E9470
:1004E000D20181110E94000080E090E0892B49F048
:1004F00080E090E0892B29F00E94000081110E9489
:10050000000080E090E0892B49F080E090E0892BAA
:1005100029F00E94000081110E94000080E090E01C
:10052000892B49F080E090E0892B29F00E9400009F
:1005300081110C9400000895FC0101900020E9F75E
:100540003197AF01481B590BBC018DE492E00C942C
:1005500068018F929F92AF92BF920F931F93CF9398
:10056000DF93CDB7DEB7A1970FB6F894DEBF0FBE0D
:10057000CDBF19A2423008F44AE08E010F5D1F4F33
:10058000842E912CB12CA12CA50194010E94E60788
:10059000E62FB901CA01EA30F4F4E05DD801EE9328
:1005A0008D01232B242B252B79F790E080E01097E9
:1005B00019F0CD010E949C02A1960FB6F894DEBFFF
:1005C0000FBECDBFDF91CF911F910F91BF90AF9024
:1005D0009F908F900895E95CE1CFCF92DF92EF92E8
:1005E000FF92CF93DF936B017C016DE28DE492E08B
:1005F0000E94FE01EC0166277727CB016C197D096B
:100600008E099F094AE00E94A9028C0F9D1FDF916D
:10061000CF91FF90EF90DF90CF9008951F920F92AF
:100620000FB60F9211242F933F938F939F93AF9305
:10063000BF938091490290914A02A0914B02B091E0
:100640004C023091480223E0230F2D3758F50196D4
:10065000A11DB11D209348028093490290934A0244
:10066000A0934B02B0934C028091440290914502BA
:10067000A0914602B09147020196A11DB11D809341
:10068000440290934502A0934602B0934702BF9163
:10069000AF919F918F913F912F910F900FBE0F902F
:1006A0001F90189526E8230F0296A11DB11DD2CFE9
:1006B0001F920F920FB60F9211240BB60F922F9329
:1006C0003F934F935F936F937F938F939F93AF93DA
:1006D000BF93EF93FF938DE492E00E94DC01FF91C2
:1006E000EF91BF91AF919F918F917F916F915F91AA
:1006F0004F913F912F910F900BBE0F900FBE0F9017
:100700001F9018951F920F920FB60F9211240BB6DF
:100710000F922F938F939F93EF93FF93E0915D023E
:10072000F0915E028081E0916302F091640282FDAB
:100730001DC09081809166028F5F8F732091670248
:10074000821741F0E0916602F0E0E35BFD4F958F88
:1007500080936602FF91EF919F918F912F910F905F
:100760000BBE0F900FBE0F901F9018958081F2CF97
:10077000789484B5826084BD84B5816084BD85B57C
:10078000826085BD85B5816085BD80916E00816088
:1007900080936E001092810080918100826080932E
:1007A0008100809181008160809381008091800030
:1007B0008160809380008091B10084608093B1005B
:1007C0008091B00081608093B00080919100826040
:1007D000809391008091910081608093910080913D
:1007E00090008160809390008091A100826080934E
:1007F000A1008091A10081608093A1008091A00060
:1008000081608093A000809121018260809321010A
:10081000809121018160809321018091200181607C
:100820008093200180917A00846080937A00809187
:100830007A00826080937A0080917A008160809350
:100840007A0080917A00806880937A001092C100CB
:10085000ECEDF1E02491E6E9F1E084918823C1F028
:1008600090E0880F991FFC01EE59FE4FC591D4917D
:10087000FC01E85BFE4FA591B4919FB7F894888185
:10088000E22FE0958E2388838C91E823EC939FBF21
:1008900000E112E0F80124917AECE72E71E0F72EE6
:1008A000F70184918823C1F090E0880F991FFC0123
:1008B000EE59FE4FA591B491FC01E85BFE4FC59146
:1008C000D4919FB7F8943C91822F809583238C9389
:1008D0008881282B28839FBFE0915D02F0915E0202
:1008E00082E08083E0915902F0915A021082E091F7
:1008F0005B02F0915C028FEC808310926502E091C4
:100900006102F091620286E08083E0915F02F091E3
:100910006002808180618083E0915F02F0916002DB
:10092000808188608083E0915F02F0916002808125
:1009300080688083E0915F02F091600280818F7D0A
:10094000808310921A0210921B0210921C021092C5
:100950001D0210923E0210923F021092400210922D
:1009600041028EE392E0CEE1D2E0199219928C1707
:100970009D07D9F730E4332ECC24C394D12C56E50F
:10098000852E52E0952E8091420290914302892B50
:1009900009F059C080913E0290913F02A09140021F
:1009A000B0914102883E9340A105B10508F44BC0C7
:1009B000D0924302C09242022EE1A22E22E0B22E39
:1009C000412C512C32014AE0C301B2010E94A9021C
:1009D00082E192E00E949C02F501619171915F01B8
:1009E000072E000C880B990B97FF29C00E94ED027F
:1009F00085E192E00E949C02FFEF4F1A5F0A6F0AA6
:100A00007F0A20E14216510461047104E1F6F40109
:100A10008491F8012491F701949191117DC0809106
:100A2000180290911902892B09F0ECC090E080E047
:100A300090931902809318020E946B02A4CF4AE09F
:100A40000E94A902D5CF8FB7F894409149025091E6
:100A50004A0260914B0270914C028FBF80913E021E
:100A600090913F02A0914002B0914102840F951FE6
:100A7000A61FB71F40901A0250901B0260901C02E4
:100A800070901D0284199509A609B70980933E024A
:100A900090933F02A0934002B093410240931A0208
:100AA00050931B0260931C0270931D02883C9105B9
:100AB000A105B10508F4ABCF80917B00877F8093BF
:100AC0007B0030927C0080917A00806480937A0071
:100AD00080917A0086FDFCCF60917800709179005A
:100AE000072E000C880B990B0E94ED0620E030E0E9
:100AF00040E851E40E94790720E030EC4FE754E4ED
:100B00000E9443060E94B506660F771F625E7D4F06
:100B1000FB01D182C0827BCF882311F181508231C9
:100B2000F8F4E82FF0E08827E756FA4F8F4F0C943F
:100B30000808C705CB05AB05BF05C305B005CE0545
:100B4000D405D805DE05E205E605EC05F005B0059F
:100B5000F405FA05FE05809180008F778093800070
:100B6000E92FF0E0EE0FFF1FE458FE4FA591B4917E
:100B70008C91282309F453CF81E090E059CF8091E4
:100B800080008F7DEBCF80918000877FE7CF84B599
:100B90008F7784BDE5CF84B58F7DFBCF8091B0008A
:100BA0008F778093B000DCCF8091B0008F7DF9CF3C
:100BB000809190008F7780939000D2CF80919000A9
:100BC0008F7DF9CF80919000877FF5CF8091A00035
:100BD0008F778093A000C4CF8091A0008F7DF9CF44
:100BE0008091A000877FF5CF809120018F7780933F
:100BF0002001B6CF809120018F7DF9CF8091200117
:100C0000877FF5CF109243021092420210923E026B
:100C100010923F021092400210924102EEE1F2E087
:100C200011921192CE17DF07D9F700CFEDE4F2E071
:100C30001382128288EE93E0A0E0B0E08483958373
:100C4000A683B78384E092E09183808385EC90E073
:100C50009587848784EC90E09787868780EC90E086
:100C6000918B808B81EC90E0938B828B82EC90E077
:100C7000958B848B86EC90E0978B868B118E128EF1
:100C8000138E148E08950E9457060C943F070E94FD
:100C9000380758F00E94310740F029F45F3F29F0EF
:100CA0000C94280751110C9473070C942E070E9482
:100CB000500768F39923B1F3552391F3951B550B16
:100CC000BB27AA2762177307840738F09F5F5F4F1F
:100CD000220F331F441FAA1FA9F335D00E2E3AF05E
:100CE000E0E832D091505040E695001CCAF72BD076
:100CF000FE2F29D0660F771F881FBB1F26173707C7
:100D00004807AB07B0E809F0BB0B802DBF01FF27F8
:100D100093585F4F3AF09E3F510578F00C942807A6
:100D20000C9473075F3FE4F3983ED4F38695779570
:100D30006795B795F7959F5FC9F7880F911D9695B1
:100D4000879597F90895E1E0660F771F881FBB1F0D
:100D5000621773078407BA0720F0621B730B840BBA
:100D6000BA0BEE1F88F7E09508950E94BC066894C0
:100D7000B1110C94730708950E94580788F09F578B
:100D800098F0B92F9927B751B0F0E1F0660F771FAF
:100D9000881F991F1AF0BA95C9F714C0B13091F0A5
:100DA0000E947207B1E008950C947207672F782FA4
:100DB0008827B85F39F0B93FCCF38695779567956A
:100DC000B395D9F73EF490958095709561957F4FD6
:100DD0008F4F9F4F0895E89409C097FB3EF490957C
:100DE0008095709561957F4F8F4F9F4F9923A9F004
:100DF000F92F96E9BB279395F69587957795679593
:100E0000B795F111F8CFFAF4BB0F11F460FF1BC0D6
:100E10006F5F7F4F8F4F9F4F16C0882311F096E969
:100E200011C0772321F09EE8872F762F05C0662317
:100E300071F096E8862F70E060E02AF09A95660FD0
:100E4000771F881FDAF7880F9695879597F9089589
:100E500097F99F6780E870E060E008959FEF80EC6D
:100E6000089500240A941616170618060906089510
:100E700000240A9412161306140605060895092E76
:100E80000394000C11F4882352F0BB0F40F4BF2BE5
:100E900011F460FF04C06F5F7F4F8F4F9F4F089525
:100EA00057FD9058440F551F59F05F3F71F047951B
:100EB000880F97FB991F61F09F3F79F08795089500
:100EC000121613061406551FF2CF4695F1DF08C01F
:100ED000161617061806991FF1CF8695710561053C
:100EE00008940895E894BB2766277727CB0197F9E4
:100EF00008950E948C070C943F070E94310738F038
:100F00000E94380720F0952311F00C9428070C94C8
:100F10002E0711240C9473070E94500770F3959FBD
:100F2000C1F3950F50E0551F629FF001729FBB27E0
:100F3000F00DB11D639FAA27F00DB11DAA1F649F7C
:100F40006627B00DA11D661F829F2227B00DA11D2F
:100F5000621F739FB00DA11D621F839FA00D611DB5
:100F6000221F749F3327A00D611D231F849F600DD6
:100F7000211D822F762F6A2F11249F5750409AF0FF
:100F8000F1F088234AF0EE0FFF1FBB1F661F771F8B
:100F9000881F91505040A9F79E3F510580F00C9456
:100FA00028070C9473075F3FE4F3983ED4F38695CB
:100FB00077956795B795F795E7959F5FC1F7FE2BF6
:100FC000880F911D9695879597F90895A1E21A2E9D
:100FD000AA1BBB1BFD010DC0AA1FBB1FEE1FFF1FDD
:100FE000A217B307E407F50720F0A21BB30BE40B2D
:100FF000F50B661F771F881F991F1A9469F7609574
:101000007095809590959B01AC01BD01CF0108952D
:10101000EE0FFF1F881F8BBF0790F691E02D1994EC
:04102000F894FFCF72
:1010240000000000FE01680195014B02C601A40105
:08103400B8013A20000D0A008A
:00000001FF
